{
  "contractName": "Bank",
  "abi": [
    {
      "constant": true,
      "inputs": [],
      "name": "getBalance",
      "outputs": [
        {
          "name": "",
          "type": "uint256"
        }
      ],
      "payable": false,
      "stateMutability": "view",
      "type": "function"
    },
    {
      "constant": false,
      "inputs": [
        {
          "name": "_memberaddress",
          "type": "address"
        }
      ],
      "name": "removeMembers",
      "outputs": [],
      "payable": false,
      "stateMutability": "nonpayable",
      "type": "function"
    },
    {
      "constant": false,
      "inputs": [],
      "name": "addFundsorPayLoan",
      "outputs": [],
      "payable": true,
      "stateMutability": "payable",
      "type": "function"
    },
    {
      "constant": false,
      "inputs": [
        {
          "name": "loanAmount",
          "type": "uint256"
        }
      ],
      "name": "requestLoan",
      "outputs": [
        {
          "name": "status",
          "type": "bool"
        }
      ],
      "payable": false,
      "stateMutability": "nonpayable",
      "type": "function"
    },
    {
      "constant": false,
      "inputs": [
        {
          "name": "_modAddress",
          "type": "address"
        },
        {
          "name": "_modName",
          "type": "string"
        }
      ],
      "name": "addMods",
      "outputs": [],
      "payable": false,
      "stateMutability": "nonpayable",
      "type": "function"
    },
    {
      "constant": false,
      "inputs": [
        {
          "name": "_memberaddress",
          "type": "address"
        },
        {
          "name": "_maxAmount",
          "type": "uint256"
        }
      ],
      "name": "addMembers",
      "outputs": [],
      "payable": false,
      "stateMutability": "nonpayable",
      "type": "function"
    },
    {
      "constant": true,
      "inputs": [],
      "name": "getAmoundAdded",
      "outputs": [
        {
          "name": "",
          "type": "uint256"
        }
      ],
      "payable": false,
      "stateMutability": "view",
      "type": "function"
    },
    {
      "inputs": [],
      "payable": false,
      "stateMutability": "nonpayable",
      "type": "constructor"
    },
    {
      "anonymous": false,
      "inputs": [
        {
          "indexed": false,
          "name": "whoAdded",
          "type": "address"
        },
        {
          "indexed": false,
          "name": "howMuch",
          "type": "uint256"
        }
      ],
      "name": "addedFunds",
      "type": "event"
    }
  ],
  "bytecode": "0x6060604052341561000f57600080fd5b336000806101000a81548173ffffffffffffffffffffffffffffffffffffffff021916908373ffffffffffffffffffffffffffffffffffffffff16021790555060408051908101604052806040805190810160405280600a81526020017f4661726d657242616e6b00000000000000000000000000000000000000000000815250815260200160011515815250600360008060009054906101000a900473ffffffffffffffffffffffffffffffffffffffff1673ffffffffffffffffffffffffffffffffffffffff1673ffffffffffffffffffffffffffffffffffffffff1681526020019081526020016000206000820151816000019080519060200190610118929190610251565b5060208201518160010160006101000a81548160ff02191690831515021790555090505060a06040519081016040528060011515815260200160011515815260200160648152602001600081526020016000815250600260008060009054906101000a900473ffffffffffffffffffffffffffffffffffffffff1673ffffffffffffffffffffffffffffffffffffffff1673ffffffffffffffffffffffffffffffffffffffff16815260200190815260200160002060008201518160000160006101000a81548160ff02191690831515021790555060208201518160000160016101000a81548160ff0219169083151502179055506040820151816001015560608201518160020155608082015181600301559050503073ffffffffffffffffffffffffffffffffffffffff16316001819055506102f6565b828054600181600116156101000203166002900490600052602060002090601f016020900481019282601f1061029257805160ff19168380011785556102c0565b828001600101855582156102c0579182015b828111156102bf5782518255916020019190600101906102a4565b5b5090506102cd91906102d1565b5090565b6102f391905b808211156102ef5760008160009055506001016102d7565b5090565b90565b610bf1806103056000396000f300606060405260043610610083576000357c0100000000000000000000000000000000000000000000000000000000900463ffffffff16806312065fe0146100885780631ecdf415146100b1578063565920ec146100ea5780638d5d3429146100f4578063c5901ad51461012f578063e1312e96146101ab578063e257b380146101ed575b600080fd5b341561009357600080fd5b61009b610216565b6040518082815260200191505060405180910390f35b34156100bc57600080fd5b6100e8600480803573ffffffffffffffffffffffffffffffffffffffff16906020019091905050610235565b005b6100f261031c565b005b34156100ff57600080fd5b610115600480803590602001909190505061068b565b604051808215151515815260200191505060405180910390f35b341561013a57600080fd5b6101a9600480803573ffffffffffffffffffffffffffffffffffffffff1690602001909190803590602001908201803590602001908080601f016020809104026020016040519081016040528093929190818152602001838380828437820191505050505050919050506108b1565b005b34156101b657600080fd5b6101eb600480803573ffffffffffffffffffffffffffffffffffffffff169060200190919080359060200190919050506109a7565b005b34156101f857600080fd5b610200610ad6565b6040518082815260200191505060405180910390f35b60003073ffffffffffffffffffffffffffffffffffffffff1631905090565b60011515600360003373ffffffffffffffffffffffffffffffffffffffff1673ffffffffffffffffffffffffffffffffffffffff16815260200190815260200160002060010160009054906101000a900460ff16151514151561029757600080fd5b600260008273ffffffffffffffffffffffffffffffffffffffff1673ffffffffffffffffffffffffffffffffffffffff168152602001908152602001600020600080820160006101000a81549060ff02191690556000820160016101000a81549060ff0219169055600182016000905560028201600090556003820160009055505050565b600060011515600260003373ffffffffffffffffffffffffffffffffffffffff1673ffffffffffffffffffffffffffffffffffffffff16815260200190815260200160002060000160009054906101000a900460ff16151514151561038057600080fd5b6001543073ffffffffffffffffffffffffffffffffffffffff163103905080600260003373ffffffffffffffffffffffffffffffffffffffff1673ffffffffffffffffffffffffffffffffffffffff168152602001908152602001600020600301600082825401925050819055506000600260003373ffffffffffffffffffffffffffffffffffffffff1673ffffffffffffffffffffffffffffffffffffffff168152602001908152602001600020600201541180156104c45750600260003373ffffffffffffffffffffffffffffffffffffffff1673ffffffffffffffffffffffffffffffffffffffff16815260200190815260200160002060030154600260003373ffffffffffffffffffffffffffffffffffffffff1673ffffffffffffffffffffffffffffffffffffffff1681526020019081526020016000206002015411155b156105ff57600260003373ffffffffffffffffffffffffffffffffffffffff1673ffffffffffffffffffffffffffffffffffffffff16815260200190815260200160002060020154600260003373ffffffffffffffffffffffffffffffffffffffff1673ffffffffffffffffffffffffffffffffffffffff168152602001908152602001600020600301600082825403925050819055506000600260003373ffffffffffffffffffffffffffffffffffffffff1673ffffffffffffffffffffffffffffffffffffffff168152602001908152602001600020600201819055506001600260003373ffffffffffffffffffffffffffffffffffffffff1673ffffffffffffffffffffffffffffffffffffffff16815260200190815260200160002060000160016101000a81548160ff0219169083151502179055505b7f5d2f03e1647f613bfec3809fe5f625d948b01ca7bdb497439ca3e6ac15e959243382604051808373ffffffffffffffffffffffffffffffffffffffff1673ffffffffffffffffffffffffffffffffffffffff1681526020018281526020019250505060405180910390a13073ffffffffffffffffffffffffffffffffffffffff163160018190555050565b600060011515600260003373ffffffffffffffffffffffffffffffffffffffff1673ffffffffffffffffffffffffffffffffffffffff16815260200190815260200160002060000160009054906101000a900460ff1615151415156106ef57600080fd5b600260003373ffffffffffffffffffffffffffffffffffffffff1673ffffffffffffffffffffffffffffffffffffffff16815260200190815260200160002060000160019054906101000a900460ff1680156107905750600260003373ffffffffffffffffffffffffffffffffffffffff1673ffffffffffffffffffffffffffffffffffffffff168152602001908152602001600020600301546002028211155b80156107bf575060023073ffffffffffffffffffffffffffffffffffffffff16318115156107ba57fe5b048211155b156108a75760001515600260003373ffffffffffffffffffffffffffffffffffffffff1673ffffffffffffffffffffffffffffffffffffffff16815260200190815260200160002060000160019054906101000a9050505081600260003373ffffffffffffffffffffffffffffffffffffffff1673ffffffffffffffffffffffffffffffffffffffff168152602001908152602001600020600201819055503373ffffffffffffffffffffffffffffffffffffffff166108fc839081150290604051600060405180830381858888f19350505050151561089e57600080fd5b600190506108ac565b600090505b919050565b6000809054906101000a900473ffffffffffffffffffffffffffffffffffffffff1673ffffffffffffffffffffffffffffffffffffffff163373ffffffffffffffffffffffffffffffffffffffff1614151561090c57600080fd5b604080519081016040528082815260200160011515815250600360008473ffffffffffffffffffffffffffffffffffffffff1673ffffffffffffffffffffffffffffffffffffffff168152602001908152602001600020600082015181600001908051906020019061097f929190610b20565b5060208201518160010160006101000a81548160ff0219169083151502179055509050505050565b6000809054906101000a900473ffffffffffffffffffffffffffffffffffffffff1673ffffffffffffffffffffffffffffffffffffffff163373ffffffffffffffffffffffffffffffffffffffff16141515610a0257600080fd5b60a060405190810160405280600115158152602001600115158152602001828152602001600081526020016000815250600260008473ffffffffffffffffffffffffffffffffffffffff1673ffffffffffffffffffffffffffffffffffffffff16815260200190815260200160002060008201518160000160006101000a81548160ff02191690831515021790555060208201518160000160016101000a81548160ff0219169083151502179055506040820151816001015560608201518160020155608082015181600301559050505050565b6000600260003373ffffffffffffffffffffffffffffffffffffffff1673ffffffffffffffffffffffffffffffffffffffff16815260200190815260200160002060030154905090565b828054600181600116156101000203166002900490600052602060002090601f016020900481019282601f10610b6157805160ff1916838001178555610b8f565b82800160010185558215610b8f579182015b82811115610b8e578251825591602001919060010190610b73565b5b509050610b9c9190610ba0565b5090565b610bc291905b80821115610bbe576000816000905550600101610ba6565b5090565b905600a165627a7a72305820e35af543202f8f008360cced39f039836b6c746da81bc787af4ac68d2e3e46eb0029",
  "source": "pragma solidity ^0.4.0;\n\ncontract Bank{\n\n    address owner;\n    uint256 previousBalance;\n\n    event addedFunds(address whoAdded, uint256 howMuch);\n\n    function Bank() {\n        owner = msg.sender;\n        mods[owner] = mod(\"FarmerBank\", true);\n        members[owner] = member(true, true, 100, 0, 0);\n        previousBalance = this.balance;\n    }\n\n    struct member{\n        bool isMember;\n        bool isPermitted;\n        uint maxAmount;\n        uint256 loanGranted;\n        uint256 amountAddedToThePool;\n    }\n\n    struct mod{\n        string name;\n        bool status;\n    }\n\n    mapping(address => member) members;\n    mapping(address => mod) mods;\n    mapping(address => uint256) loanGranted;\n\n    // modifier onlyowner(){\n    //     if(msg.sender == owner){\n    //         _;\n    //     }else{\n    //         revert();\n    //     }\n    // }\n\n    // modifier onlymods(){\n    //     if(mods[msg.sender].status == true){\n    //         _;\n    //     }else{\n    //         revert();\n    //     }\n    // }\n\n    // modifier onlymember(){\n    //     if(members[msg.sender].isMember == true){\n    //         _;\n    //     }else{\n    //         revert();\n    //     }\n    // }\n\n    modifier onlyowner(){\n        require(msg.sender == owner);\n\n        _;\n    }\n\n    modifier onlymods(){\n        require(mods[msg.sender].status == true);\n            _;\n    }\n\n    modifier onlymember(){\n        require(members[msg.sender].isMember == true);\n            _;\n    }\n\n    function addMods(address _modAddress, string _modName) onlyowner{\n        mods[_modAddress] = mod(_modName, true);\n    }\n\n    function addMembers(address _memberaddress, uint _maxAmount) onlyowner{\n        members[_memberaddress] = member(true, true, _maxAmount, 0, 0);\n    }\n\n    function removeMembers(address _memberaddress) onlymods{\n        delete members[_memberaddress];\n    }\n\n    function addFundsorPayLoan() payable onlymember{\n        uint256 changeInBalance = this.balance - previousBalance;\n        members[msg.sender].amountAddedToThePool += changeInBalance;\n        if(members[msg.sender].loanGranted > 0 && members[msg.sender].loanGranted <= members[msg.sender].amountAddedToThePool){\n            members[msg.sender].amountAddedToThePool -= members[msg.sender].loanGranted;\n            members[msg.sender].loanGranted = 0;\n            members[msg.sender].isPermitted = true;\n        }\n        addedFunds(msg.sender, changeInBalance);\n        previousBalance = this.balance;\n    }\n\n    function requestLoan(uint256 loanAmount) onlymember returns(bool status){\n        if(members[msg.sender].isPermitted && loanAmount <= 2*members[msg.sender].amountAddedToThePool && loanAmount <= this.balance/2){\n            members[msg.sender].isPermitted == false;\n            members[msg.sender].loanGranted = loanAmount;\n            msg.sender.transfer(loanAmount);\n            return true;\n        }\n        else{\n            return false;\n        }\n    }\n\n    function getBalance() constant returns(uint256){\n        return this.balance;\n    }\n\n    function getAmoundAdded() constant returns(uint256){\n        return members[msg.sender].amountAddedToThePool;\n    }\n}",
  "sourcePath": "/Users/naman/Desktop/dev/git/reactjs-dashboard/src/blockchain/contracts/farmerbank.sol",
  "compiler": {
    "name": "solc",
    "version": "0.4.18+commit.9cf6e910.Emscripten.clang"
  },
  "schemaVersion": "1.0.1",
  "updatedAt": "2017-11-28T03:51:17.792Z"
}